{"abi":[{"type":"constructor","inputs":[],"stateMutability":"nonpayable"},{"type":"function","name":"PROTOCOL_FEE_PERCENTAGE","inputs":[],"outputs":[{"name":"","type":"uint256","internalType":"uint256"}],"stateMutability":"view"},{"type":"function","name":"SLASH_PERCENTAGE","inputs":[],"outputs":[{"name":"","type":"uint256","internalType":"uint256"}],"stateMutability":"view"},{"type":"function","name":"USDC_TOKEN","inputs":[],"outputs":[{"name":"","type":"address","internalType":"address"}],"stateMutability":"view"},{"type":"function","name":"VALIDATOR_FEE_PERCENTAGE","inputs":[],"outputs":[{"name":"","type":"uint256","internalType":"uint256"}],"stateMutability":"view"},{"type":"function","name":"addFunds","inputs":[{"name":"repoName","type":"string","internalType":"string"},{"name":"issueId","type":"uint256","internalType":"uint256"},{"name":"amount","type":"uint256","internalType":"uint256"}],"outputs":[],"stateMutability":"nonpayable"},{"type":"function","name":"addValidator","inputs":[{"name":"stakeAmount","type":"uint256","internalType":"uint256"}],"outputs":[],"stateMutability":"nonpayable"},{"type":"function","name":"addValidatorStake","inputs":[{"name":"additionalStake","type":"uint256","internalType":"uint256"}],"outputs":[],"stateMutability":"nonpayable"},{"type":"function","name":"approvePullRequest","inputs":[{"name":"repoName","type":"string","internalType":"string"},{"name":"issueId","type":"uint256","internalType":"uint256"},{"name":"pullRequestId","type":"uint256","internalType":"uint256"}],"outputs":[],"stateMutability":"nonpayable"},{"type":"function","name":"createIssue","inputs":[{"name":"repoName","type":"string","internalType":"string"},{"name":"issueId","type":"uint256","internalType":"uint256"},{"name":"initialAmount","type":"uint256","internalType":"uint256"}],"outputs":[],"stateMutability":"nonpayable"},{"type":"function","name":"createPullRequest","inputs":[{"name":"repoName","type":"string","internalType":"string"},{"name":"issueId","type":"uint256","internalType":"uint256"},{"name":"pullRequestId","type":"uint256","internalType":"uint256"}],"outputs":[],"stateMutability":"nonpayable"},{"type":"function","name":"getIssueBalance","inputs":[{"name":"repoName","type":"string","internalType":"string"},{"name":"issueId","type":"uint256","internalType":"uint256"}],"outputs":[{"name":"","type":"uint256","internalType":"uint256"}],"stateMutability":"view"},{"type":"function","name":"getValidatorStake","inputs":[{"name":"validator","type":"address","internalType":"address"}],"outputs":[{"name":"","type":"uint256","internalType":"uint256"}],"stateMutability":"view"},{"type":"function","name":"owner","inputs":[],"outputs":[{"name":"","type":"address","internalType":"address"}],"stateMutability":"view"},{"type":"function","name":"protocolFeeVault","inputs":[],"outputs":[{"name":"","type":"uint256","internalType":"uint256"}],"stateMutability":"view"},{"type":"function","name":"renounceOwnership","inputs":[],"outputs":[],"stateMutability":"nonpayable"},{"type":"function","name":"transferOwnership","inputs":[{"name":"newOwner","type":"address","internalType":"address"}],"outputs":[],"stateMutability":"nonpayable"},{"type":"function","name":"unapprovePullRequest","inputs":[{"name":"repoName","type":"string","internalType":"string"},{"name":"issueId","type":"uint256","internalType":"uint256"},{"name":"pullRequestId","type":"uint256","internalType":"uint256"}],"outputs":[],"stateMutability":"nonpayable"},{"type":"function","name":"usdc","inputs":[],"outputs":[{"name":"","type":"address","internalType":"contract IERC20"}],"stateMutability":"view"},{"type":"function","name":"validatorStakeAmount","inputs":[],"outputs":[{"name":"","type":"uint256","internalType":"uint256"}],"stateMutability":"view"},{"type":"function","name":"withdrawProtocolFees","inputs":[{"name":"to","type":"address","internalType":"address"},{"name":"amount","type":"uint256","internalType":"uint256"}],"outputs":[],"stateMutability":"nonpayable"},{"type":"function","name":"withdrawValidatorStake","inputs":[{"name":"amount","type":"uint256","internalType":"uint256"}],"outputs":[],"stateMutability":"nonpayable"},{"type":"event","name":"IssueCreated","inputs":[{"name":"repoName","type":"string","indexed":false,"internalType":"string"},{"name":"issueId","type":"uint256","indexed":false,"internalType":"uint256"},{"name":"initialAmount","type":"uint256","indexed":false,"internalType":"uint256"}],"anonymous":false},{"type":"event","name":"IssueUpdated","inputs":[{"name":"repoName","type":"string","indexed":false,"internalType":"string"},{"name":"issueId","type":"uint256","indexed":false,"internalType":"uint256"},{"name":"issueBalance","type":"uint256","indexed":false,"internalType":"uint256"}],"anonymous":false},{"type":"event","name":"OwnershipTransferred","inputs":[{"name":"previousOwner","type":"address","indexed":true,"internalType":"address"},{"name":"newOwner","type":"address","indexed":true,"internalType":"address"}],"anonymous":false},{"type":"event","name":"ProtocolFeesWithdrawn","inputs":[{"name":"to","type":"address","indexed":true,"internalType":"address"},{"name":"amount","type":"uint256","indexed":false,"internalType":"uint256"}],"anonymous":false},{"type":"event","name":"PullRequestApproved","inputs":[{"name":"repoName","type":"string","indexed":false,"internalType":"string"},{"name":"issueId","type":"uint256","indexed":false,"internalType":"uint256"},{"name":"pullRequestId","type":"uint256","indexed":false,"internalType":"uint256"},{"name":"validator","type":"address","indexed":false,"internalType":"address"}],"anonymous":false},{"type":"event","name":"PullRequestCreated","inputs":[{"name":"repoName","type":"string","indexed":false,"internalType":"string"},{"name":"issueId","type":"uint256","indexed":false,"internalType":"uint256"},{"name":"pullRequestId","type":"uint256","indexed":false,"internalType":"uint256"},{"name":"proposer","type":"address","indexed":false,"internalType":"address"}],"anonymous":false},{"type":"event","name":"PullRequestUnapproved","inputs":[{"name":"repoName","type":"string","indexed":false,"internalType":"string"},{"name":"issueId","type":"uint256","indexed":false,"internalType":"uint256"},{"name":"pullRequestId","type":"uint256","indexed":false,"internalType":"uint256"},{"name":"validator","type":"address","indexed":false,"internalType":"address"}],"anonymous":false},{"type":"event","name":"ValidatorAdded","inputs":[{"name":"validator","type":"address","indexed":true,"internalType":"address"},{"name":"stakedAmount","type":"uint256","indexed":false,"internalType":"uint256"}],"anonymous":false},{"type":"event","name":"ValidatorSlashed","inputs":[{"name":"validator","type":"address","indexed":false,"internalType":"address"},{"name":"slashedAmount","type":"uint256","indexed":false,"internalType":"uint256"}],"anonymous":false},{"type":"event","name":"ValidatorStakeUpdated","inputs":[{"name":"validator","type":"address","indexed":true,"internalType":"address"},{"name":"stakedAmount","type":"uint256","indexed":false,"internalType":"uint256"}],"anonymous":false},{"type":"event","name":"ValidatorWithdrawn","inputs":[{"name":"validator","type":"address","indexed":true,"internalType":"address"},{"name":"amount","type":"uint256","indexed":false,"internalType":"uint256"}],"anonymous":false},{"type":"error","name":"OwnableInvalidOwner","inputs":[{"name":"owner","type":"address","internalType":"address"}]},{"type":"error","name":"OwnableUnauthorizedAccount","inputs":[{"name":"account","type":"address","internalType":"address"}]}],"bytecode":{"object":"0x60a06040526032600255600060035534801561001a57600080fd5b50338061004157604051631e4fbdf760e01b81526000600482015260240160405180910390fd5b61004a81610068565b5073036cbd53842c5426634e7929541ec2318f3dcf7e6080526100b8565b600080546001600160a01b038381166001600160a01b0319831681178455604051919092169283917f8be0079c531659141344cd1fd0a4f28419497f9722a3daafe3b4186f6b6457e09190a35050565b608051612451610112600039600081816101a5015281816103ec01528181610545015281816108ab01528181610c1701528181611056015281816114580152818161193401528181611a630152611dc001526124516000f3fe608060405234801561001057600080fd5b50600436106101375760003560e01c80638da5cb5b116100b8578063ccfc98fd1161007c578063ccfc98fd1461028e578063e4d7d6dc146102a1578063eea5353d146102a9578063f2464a19146102b2578063f2fde38b146102ba578063fa569274146102cd57600080fd5b80638da5cb5b146102465780639f29f13514610257578063af1af3b91461025f578063afd008ce14610268578063cae817461461027b57600080fd5b806342f3aa02116100ff57806342f3aa02146101f2578063610b8c5d146102055780636e9123e314610218578063715018a61461022b57806374c3af9b1461023357600080fd5b80631a7a73c21461013c57806334664846146101515780633983c7581461018d5780633e413bee146101a057806341ecaa57146101df575b600080fd5b61014f61014a366004611f09565b6102e8565b005b61017a61015f366004611f33565b6001600160a01b031660009081526006602052604090205490565b6040519081526020015b60405180910390f35b61014f61019b366004611ffa565b6104bc565b6101c77f000000000000000000000000000000000000000000000000000000000000000081565b6040516001600160a01b039091168152602001610184565b61017a6101ed366004612048565b610667565b61014f610200366004611ffa565b6106f6565b61014f61021336600461208d565b610823565b61014f61022636600461208d565b6109a0565b61014f610cda565b61014f610241366004611ffa565b610cee565b6000546001600160a01b03166101c7565b61017a600581565b61017a60015481565b61014f61027636600461208d565b610f97565b61014f610289366004611ffa565b611143565b61014f61029c366004611ffa565b6113ef565b61017a600481565b61017a60025481565b61017a600181565b61014f6102c8366004611f33565b6115a2565b6101c773036cbd53842c5426634e7929541ec2318f3dcf7e81565b6102f06115e0565b6001548111156103475760405162461bcd60e51b815260206004820152601a60248201527f496e73756666696369656e742070726f746f636f6c206665657300000000000060448201526064015b60405180910390fd5b600081116103675760405162461bcd60e51b815260040161033e906120a6565b6001600160a01b0382166103af5760405162461bcd60e51b815260206004820152600f60248201526e496e76616c6964206164647265737360881b604482015260640161033e565b80600160008282546103c191906120f3565b909155505060405163a9059cbb60e01b81526001600160a01b038381166004830152602482018390527f0000000000000000000000000000000000000000000000000000000000000000169063a9059cbb906044016020604051808303816000875af1158015610435573d6000803e3d6000fd5b505050506040513d601f19601f820116820180604052508101906104599190612106565b6104755760405162461bcd60e51b815260040161033e90612128565b816001600160a01b03167fa087657e3d85162090ffd700fbfdf5070d816f63aa5da00063f6ffd369c8a6db826040516104b091815260200190565b60405180910390a25050565b6005836040516104cc919061217a565b9081526040805160209281900383019020600085815292529020600201541561052e5760405162461bcd60e51b8152602060048201526014602482015273497373756520616c72656164792065786973747360601b604482015260640161033e565b6040516323b872dd60e01b81526001600160a01b037f000000000000000000000000000000000000000000000000000000000000000016906323b872dd9061057e90339030908690600401612196565b6020604051808303816000875af115801561059d573d6000803e3d6000fd5b505050506040513d601f19601f820116820180604052508101906105c19190612106565b6105dd5760405162461bcd60e51b815260040161033e90612128565b60006005846040516105ef919061217a565b90815260408051602092819003830190206000868152925290209050806106168582612243565b5060018101839055600281018290556040517fe7d872c262e742aef386b1d1d8edb6faf1f2de7496a4ea44a6cf89db5d0466c1906106599086908690869061232e565b60405180910390a150505050565b60008060058460405161067a919061217a565b9081526020016040518091039020600084815260200190815260200160002060020154116106ba5760405162461bcd60e51b815260040161033e90612353565b6005836040516106ca919061217a565b908152602001604051809103902060008381526020019081526020016000206002015490505b92915050565b6000600584604051610708919061217a565b9081526020016040518091039020600084815260200190815260200160002060020154116107485760405162461bcd60e51b815260040161033e90612353565b600060035460016107599190612381565b9050600354600161076a9190612381565b60058560405161077a919061217a565b9081526040805191829003602090810183206000888152908252828120878252600301825282812094909455848452600490528220805460018201849055600282019390935560ff60a01b19339081166001600160a81b031990941693909317600160a01b178155917ff9d6db5dc6ecaf61d91317d2ea28aa3bcddd38357307e9c2dc268147a3956abc9161081491889188918891612394565b60405180910390a15050505050565b3360009081526007602052604090205460ff166108745760405162461bcd60e51b815260206004820152600f60248201526e2737ba1030903b30b634b230ba37b960891b604482015260640161033e565b600081116108945760405162461bcd60e51b815260040161033e906120a6565b6040516323b872dd60e01b81526001600160a01b037f000000000000000000000000000000000000000000000000000000000000000016906323b872dd906108e490339030908690600401612196565b6020604051808303816000875af1158015610903573d6000803e3d6000fd5b505050506040513d601f19601f820116820180604052508101906109279190612106565b6109435760405162461bcd60e51b815260040161033e90612128565b3360009081526006602052604081208054839290610962908490612381565b909155505060405181815233907f10346b0d3a98a58c1f3c66ffbc1cffada168837af0810f19473b1fb2338099d8906020015b60405180910390a250565b3360009081526007602052604090205460ff166109f15760405162461bcd60e51b815260206004820152600f60248201526e2737ba1030903b30b634b230ba37b960891b604482015260640161033e565b33600090815260066020526040902054811115610a505760405162461bcd60e51b815260206004820152601a60248201527f496e73756666696369656e74207374616b652062616c616e6365000000000000604482015260640161033e565b60008111610a705760405162461bcd60e51b815260040161033e906120a6565b60005b600354811015610b385760008181526004602052604090208054600160a01b900460ff1615610b2f5760005b6003820154811015610b2d57336001600160a01b0316826003018281548110610aca57610aca6123cc565b6000918252602090912001546001600160a01b031603610b255760405162461bcd60e51b81526020600482015260166024820152752b30b634b230ba37b91030b1ba34bb329034b710282960511b604482015260640161033e565b600101610a9f565b505b50600101610a73565b50336000908152600660205260409020548103610b6b57336000908152600760205260409020805460ff19169055610bd7565b60025433600090815260066020526040902054610b899083906120f3565b1015610bd75760405162461bcd60e51b815260206004820152601d60248201527f52656d61696e696e67207374616b652062656c6f77206d696e696d756d000000604482015260640161033e565b3360009081526006602052604081208054839290610bf69084906120f3565b909155505060405163a9059cbb60e01b8152336004820152602481018290527f00000000000000000000000000000000000000000000000000000000000000006001600160a01b03169063a9059cbb906044016020604051808303816000875af1158015610c68573d6000803e3d6000fd5b505050506040513d601f19601f82011682018060405250810190610c8c9190612106565b610ca85760405162461bcd60e51b815260040161033e90612128565b60405181815233907fa011545e03027296d3a8442724d6dc906b26fc29dfb764502d44c9db2762c0de90602001610995565b610ce26115e0565b610cec600061160d565b565b600254336000908152600660205260409020541015610d4f5760405162461bcd60e51b815260206004820152601b60248201527f4f6e6c792076616c696461746f72732063616e20617070726f76650000000000604482015260640161033e565b6000600584604051610d61919061217a565b90815260408051602092819003830190206000868152908352818120858252600301835281812054808252600480855283832060018101546002820154338652919092019095529282205490945091929160ff1690805b600086815260046020526040902060030154811015610e6e576000868152600460205260409020600301805433919083908110610df757610df76123cc565b6000918252602090912001546001600160a01b031603610e6657600191508215158203610e665760405162461bcd60e51b815260206004820152601e60248201527f56616c696461746f722068617320616c726561647920617070726f7665640000604482015260640161033e565b600101610db8565b50808015610e7a575081155b15610e9157610e8a600285612381565b9350610edd565b610e9c600184612381565b9250610ea9600185612381565b60008681526004602090815260408220600301805460018101825590835291200180546001600160a01b0319163317905593505b6000858152600460208181526040808420338086528185018452828620805460ff19166001908117909155958b90529390925292810187905560020185905590517f7fd1378bb619f703de8bf31361a3eb721682006873fef9ad82551fb89850a0b691610f50918b918b918b9190612394565b60405180910390a160038410158015610f7d5750610f6f8360506123e2565b610f7a8560646123e2565b10155b15610f8d57610f8d88888861165d565b5050505050505050565b3360009081526007602052604090205460ff1615610fed5760405162461bcd60e51b815260206004820152601360248201527220b63932b0b23c9030903b30b634b230ba37b960691b604482015260640161033e565b60025481101561103f5760405162461bcd60e51b815260206004820152601a60248201527f5374616b6520616d6f756e742062656c6f77206d696e696d756d000000000000604482015260640161033e565b6040516323b872dd60e01b81526001600160a01b037f000000000000000000000000000000000000000000000000000000000000000016906323b872dd9061108f90339030908690600401612196565b6020604051808303816000875af11580156110ae573d6000803e3d6000fd5b505050506040513d601f19601f820116820180604052508101906110d29190612106565b6110ee5760405162461bcd60e51b815260040161033e90612128565b3360008181526006602090815260408083208590556007825291829020805460ff1916600117905590518381527f9000b209805850a65058f21361a9978cb30f1413ed555553ab52a59b440b5d999101610995565b6002543360009081526006602052604090205410156111a45760405162461bcd60e51b815260206004820152601d60248201527f4f6e6c792076616c696461746f72732063616e20756e617070726f7665000000604482015260640161033e565b60006005846040516111b6919061217a565b90815260408051602092819003830190206000868152908352818120858252600301835281812054808252600480855283832060018101546002820154338652919092019095529282205490945091929160ff1690805b6000868152600460205260409020600301548110156112c457600086815260046020526040902060030180543391908390811061124c5761124c6123cc565b6000918252602090912001546001600160a01b0316036112bc57600191508215156000036112bc5760405162461bcd60e51b815260206004820181905260248201527f56616c696461746f722068617320616c726561647920756e617070726f766564604482015260640161033e565b60010161120d565b508080156112d457506001821515145b156112eb576112e46001856120f3565b935061132a565b6112f6600184612381565b60008681526004602090815260408220600301805460018101825590835291200180546001600160a01b0319163317905592505b6000858152600460208181526040808420338086528185018452828620805460ff19169055948a905292909152600182018790556002909101859055517f8e4f0a9fdbce6ec4a3483f41b7ba0cc0e4e413caba5cb84713032a08b125886691611399918b918b918b9190612394565b60405180910390a160006113ad85856120f3565b9050600381101580156113d457506113c68460506123e2565b6113d18260646123e2565b10155b156113e4576113e4898989611b44565b505050505050505050565b6000600584604051611401919061217a565b9081526020016040518091039020600084815260200190815260200160002060020154116114415760405162461bcd60e51b815260040161033e90612353565b6040516323b872dd60e01b81526001600160a01b037f000000000000000000000000000000000000000000000000000000000000000016906323b872dd9061149190339030908690600401612196565b6020604051808303816000875af11580156114b0573d6000803e3d6000fd5b505050506040513d601f19601f820116820180604052508101906114d49190612106565b6114f05760405162461bcd60e51b815260040161033e90612128565b80600584604051611501919061217a565b9081526020016040518091039020600084815260200190815260200160002060020160008282546115329190612381565b925050819055507f22114e8f3eb5c40e670ca49344c4384aec0d7768e327c00ba6f908d643a7fa24838360058660405161156c919061217a565b90815260408051918290036020908101832060008981529152206002015461159593929161232e565b60405180910390a1505050565b6115aa6115e0565b6001600160a01b0381166115d457604051631e4fbdf760e01b81526000600482015260240161033e565b6115dd8161160d565b50565b6000546001600160a01b03163314610cec5760405163118cdaa760e01b815233600482015260240161033e565b600080546001600160a01b038381166001600160a01b0319831681178455604051919092169283917f8be0079c531659141344cd1fd0a4f28419497f9722a3daafe3b4186f6b6457e09190a35050565b600060058460405161166f919061217a565b908152604080516020928190038301812060008781529352908220925060059061169a90879061217a565b9081526040805160209281900383019020600087815290835281812086825260039081018452828220548083526004909452918120909101549192505b81811015611809576000838152600460205260408120600301805483908110611702576117026123cc565b6000918252602080832090910154868352600480835260408085206001600160a01b039093168086529290910190925291205490915060ff16611800576001600160a01b038116600090815260066020526040812054606490611767906005906123e2565b61177191906123f9565b6001600160a01b03831660009081526006602052604081208054929350839290919061179e9084906120f3565b9250508190555080600160008282546117b79190612381565b9091555050604080516001600160a01b0384168152602081018390527f17bddadfd7ec8898c3b9eadd0cf5ae77ba8d5df3a50e96ab86ec2dd711aa8fbb910160405180910390a1505b506001016116d7565b5060028301546000606461181e6001846123e2565b61182891906123f9565b9050600060646118396004856123e2565b61184391906123f9565b905060008161185284866120f3565b61185c91906120f3565b905060008760020181905550816001600082825461187a9190612381565b909155505060008681526004602052604081206001810154905490916001600160a01b03909116906118ac83876123f9565b905060005b88811015611a3c5760008a8152600460208190526040822060038101805491909201929190849081106118e6576118e66123cc565b60009182526020808320909101546001600160a01b0316835282019290925260400190205460ff161515600103611a345760008a815260046020526040902060030180546001600160a01b037f0000000000000000000000000000000000000000000000000000000000000000169163a9059cbb918490811061196b5761196b6123cc565b60009182526020909120015460405160e083901b6001600160e01b03191681526001600160a01b039091166004820152602481018590526044016020604051808303816000875af11580156119c4573d6000803e3d6000fd5b505050506040513d601f19601f820116820180604052508101906119e89190612106565b611a345760405162461bcd60e51b815260206004820152601d60248201527f56616c696461746f7220666565207472616e73666572206661696c6564000000604482015260640161033e565b6001016118b1565b5060405163a9059cbb60e01b81526001600160a01b038381166004830152602482018690527f0000000000000000000000000000000000000000000000000000000000000000169063a9059cbb906044016020604051808303816000875af1158015611aac573d6000803e3d6000fd5b505050506040513d601f19601f82011682018060405250810190611ad09190612106565b611b1c5760405162461bcd60e51b815260206004820152601860248201527f50726f706f736572207472616e73666572206661696c65640000000000000000604482015260640161033e565b50505060009586525050600460205250506040909120805460ff60a01b191690555050505050565b6000600584604051611b56919061217a565b9081526040805160209281900383018120600087815293529082209250600590611b8190879061217a565b9081526040805160209281900383019020600087815290835281812086825260039081018452828220548083526004909452918120909101549192505b81811015611cf1576000838152600460205260408120600301805483908110611be957611be96123cc565b6000918252602080832090910154868352600480835260408085206001600160a01b039093168086529290910190925291205490915060ff1615611ce8576001600160a01b038116600090815260066020526040812054606490611c4f906005906123e2565b611c5991906123f9565b6001600160a01b038316600090815260066020526040812080549293508392909190611c869084906120f3565b925050819055508060016000828254611c9f9190612381565b9091555050604080516001600160a01b0384168152602081018390527f17bddadfd7ec8898c3b9eadd0cf5ae77ba8d5df3a50e96ab86ec2dd711aa8fbb910160405180910390a1505b50600101611bbe565b50600283015460006064611d066001846123e2565b611d1091906123f9565b600085815260046020526040812060010154919250611d2f82866120f3565b611d3990846123f9565b905060005b85811015611ec857600087815260046020819052604082206003810180549190920192919084908110611d7357611d736123cc565b60009182526020808320909101546001600160a01b0316835282019290925260400181205460ff1615159003611ec057600087815260046020526040902060030180546001600160a01b037f0000000000000000000000000000000000000000000000000000000000000000169163a9059cbb9184908110611df757611df76123cc565b60009182526020909120015460405160e083901b6001600160e01b03191681526001600160a01b039091166004820152602481018590526044016020604051808303816000875af1158015611e50573d6000803e3d6000fd5b505050506040513d601f19601f82011682018060405250810190611e749190612106565b611ec05760405162461bcd60e51b815260206004820152601d60248201527f56616c696461746f7220666565207472616e73666572206661696c6564000000604482015260640161033e565b600101611d3e565b5050506000938452505060046020525060409020805460ff60a01b1916905550505050565b80356001600160a01b0381168114611f0457600080fd5b919050565b60008060408385031215611f1c57600080fd5b611f2583611eed565b946020939093013593505050565b600060208284031215611f4557600080fd5b611f4e82611eed565b9392505050565b634e487b7160e01b600052604160045260246000fd5b600082601f830112611f7c57600080fd5b813567ffffffffffffffff811115611f9657611f96611f55565b604051601f8201601f19908116603f0116810167ffffffffffffffff81118282101715611fc557611fc5611f55565b604052818152838201602001851015611fdd57600080fd5b816020850160208301376000918101602001919091529392505050565b60008060006060848603121561200f57600080fd5b833567ffffffffffffffff81111561202657600080fd5b61203286828701611f6b565b9660208601359650604090950135949350505050565b6000806040838503121561205b57600080fd5b823567ffffffffffffffff81111561207257600080fd5b61207e85828601611f6b565b95602094909401359450505050565b60006020828403121561209f57600080fd5b5035919050565b6020808252601d908201527f416d6f756e74206d7573742062652067726561746572207468616e2030000000604082015260600190565b634e487b7160e01b600052601160045260246000fd5b818103818111156106f0576106f06120dd565b60006020828403121561211857600080fd5b81518015158114611f4e57600080fd5b6020808252601490820152731554d110c81d1c985b9cd9995c8819985a5b195960621b604082015260600190565b60005b83811015612171578181015183820152602001612159565b50506000910152565b6000825161218c818460208701612156565b9190910192915050565b6001600160a01b039384168152919092166020820152604081019190915260600190565b600181811c908216806121ce57607f821691505b6020821081036121ee57634e487b7160e01b600052602260045260246000fd5b50919050565b601f82111561223e57806000526020600020601f840160051c8101602085101561221b5750805b601f840160051c820191505b8181101561223b5760008155600101612227565b50505b505050565b815167ffffffffffffffff81111561225d5761225d611f55565b6122718161226b84546121ba565b846121f4565b6020601f8211600181146122a5576000831561228d5750848201515b600019600385901b1c1916600184901b17845561223b565b600084815260208120601f198516915b828110156122d557878501518255602094850194600190920191016122b5565b50848210156122f35786840151600019600387901b60f8161c191681555b50505050600190811b01905550565b6000815180845261231a816020860160208601612156565b601f01601f19169290920160200192915050565b6060815260006123416060830186612302565b60208301949094525060400152919050565b602080825260149082015273125cdcdd5948191bd95cc81b9bdd08195e1a5cdd60621b604082015260600190565b808201808211156106f0576106f06120dd565b6080815260006123a76080830187612302565b60208301959095525060408101929092526001600160a01b0316606090910152919050565b634e487b7160e01b600052603260045260246000fd5b80820281158282048414176106f0576106f06120dd565b60008261241657634e487b7160e01b600052601260045260246000fd5b50049056fea2646970667358221220c26b84594920116910f5268440b65506ab0b6ee9d52fa3f9d59a91963c62fa4e64736f6c634300081c0033","linkReferences":{}},"methodIdentifiers":{"PROTOCOL_FEE_PERCENTAGE()":"e4d7d6dc","SLASH_PERCENTAGE()":"9f29f135","USDC_TOKEN()":"fa569274","VALIDATOR_FEE_PERCENTAGE()":"f2464a19","addFunds(string,uint256,uint256)":"ccfc98fd","addValidator(uint256)":"afd008ce","addValidatorStake(uint256)":"610b8c5d","approvePullRequest(string,uint256,uint256)":"74c3af9b","createIssue(string,uint256,uint256)":"3983c758","createPullRequest(string,uint256,uint256)":"42f3aa02","getIssueBalance(string,uint256)":"41ecaa57","getValidatorStake(address)":"34664846","owner()":"8da5cb5b","protocolFeeVault()":"af1af3b9","renounceOwnership()":"715018a6","transferOwnership(address)":"f2fde38b","unapprovePullRequest(string,uint256,uint256)":"cae81746","usdc()":"3e413bee","validatorStakeAmount()":"eea5353d","withdrawProtocolFees(address,uint256)":"1a7a73c2","withdrawValidatorStake(uint256)":"6e9123e3"},"id":0}