{"abi":[{"type":"constructor","inputs":[],"stateMutability":"nonpayable"},{"type":"function","name":"PROTOCOL_FEE_PERCENTAGE","inputs":[],"outputs":[{"name":"","type":"uint256","internalType":"uint256"}],"stateMutability":"view"},{"type":"function","name":"SLASH_PERCENTAGE","inputs":[],"outputs":[{"name":"","type":"uint256","internalType":"uint256"}],"stateMutability":"view"},{"type":"function","name":"USDC_TOKEN","inputs":[],"outputs":[{"name":"","type":"address","internalType":"address"}],"stateMutability":"view"},{"type":"function","name":"VALIDATOR_FEE_PERCENTAGE","inputs":[],"outputs":[{"name":"","type":"uint256","internalType":"uint256"}],"stateMutability":"view"},{"type":"function","name":"addFunds","inputs":[{"name":"repoName","type":"string","internalType":"string"},{"name":"issueId","type":"uint256","internalType":"uint256"},{"name":"amount","type":"uint256","internalType":"uint256"}],"outputs":[],"stateMutability":"nonpayable"},{"type":"function","name":"addValidator","inputs":[{"name":"stakeAmount","type":"uint256","internalType":"uint256"}],"outputs":[],"stateMutability":"nonpayable"},{"type":"function","name":"addValidatorStake","inputs":[{"name":"additionalStake","type":"uint256","internalType":"uint256"}],"outputs":[],"stateMutability":"nonpayable"},{"type":"function","name":"approvePullRequest","inputs":[{"name":"repoName","type":"string","internalType":"string"},{"name":"issueId","type":"uint256","internalType":"uint256"},{"name":"pullRequestId","type":"uint256","internalType":"uint256"}],"outputs":[],"stateMutability":"nonpayable"},{"type":"function","name":"createIssue","inputs":[{"name":"repoName","type":"string","internalType":"string"},{"name":"issueId","type":"uint256","internalType":"uint256"},{"name":"initialAmount","type":"uint256","internalType":"uint256"}],"outputs":[],"stateMutability":"nonpayable"},{"type":"function","name":"createPullRequest","inputs":[{"name":"repoName","type":"string","internalType":"string"},{"name":"issueId","type":"uint256","internalType":"uint256"},{"name":"pullRequestId","type":"uint256","internalType":"uint256"}],"outputs":[],"stateMutability":"nonpayable"},{"type":"function","name":"getIssueBalance","inputs":[{"name":"repoName","type":"string","internalType":"string"},{"name":"issueId","type":"uint256","internalType":"uint256"}],"outputs":[{"name":"","type":"uint256","internalType":"uint256"}],"stateMutability":"view"},{"type":"function","name":"getValidatorStake","inputs":[{"name":"validator","type":"address","internalType":"address"}],"outputs":[{"name":"","type":"uint256","internalType":"uint256"}],"stateMutability":"view"},{"type":"function","name":"owner","inputs":[],"outputs":[{"name":"","type":"address","internalType":"address"}],"stateMutability":"view"},{"type":"function","name":"protocolFeeVault","inputs":[],"outputs":[{"name":"","type":"uint256","internalType":"uint256"}],"stateMutability":"view"},{"type":"function","name":"renounceOwnership","inputs":[],"outputs":[],"stateMutability":"nonpayable"},{"type":"function","name":"transferOwnership","inputs":[{"name":"newOwner","type":"address","internalType":"address"}],"outputs":[],"stateMutability":"nonpayable"},{"type":"function","name":"unapprovePullRequest","inputs":[{"name":"repoName","type":"string","internalType":"string"},{"name":"issueId","type":"uint256","internalType":"uint256"},{"name":"pullRequestId","type":"uint256","internalType":"uint256"}],"outputs":[],"stateMutability":"nonpayable"},{"type":"function","name":"usdc","inputs":[],"outputs":[{"name":"","type":"address","internalType":"contract IERC20"}],"stateMutability":"view"},{"type":"function","name":"validatorStakeAmount","inputs":[],"outputs":[{"name":"","type":"uint256","internalType":"uint256"}],"stateMutability":"view"},{"type":"function","name":"withdrawProtocolFees","inputs":[{"name":"to","type":"address","internalType":"address"},{"name":"amount","type":"uint256","internalType":"uint256"}],"outputs":[],"stateMutability":"nonpayable"},{"type":"function","name":"withdrawValidatorStake","inputs":[{"name":"amount","type":"uint256","internalType":"uint256"}],"outputs":[],"stateMutability":"nonpayable"},{"type":"event","name":"IssueCreated","inputs":[{"name":"repoName","type":"string","indexed":false,"internalType":"string"},{"name":"issueId","type":"uint256","indexed":false,"internalType":"uint256"},{"name":"initialAmount","type":"uint256","indexed":false,"internalType":"uint256"}],"anonymous":false},{"type":"event","name":"IssueUpdated","inputs":[{"name":"repoName","type":"string","indexed":false,"internalType":"string"},{"name":"issueId","type":"uint256","indexed":false,"internalType":"uint256"},{"name":"issueBalance","type":"uint256","indexed":false,"internalType":"uint256"}],"anonymous":false},{"type":"event","name":"OwnershipTransferred","inputs":[{"name":"previousOwner","type":"address","indexed":true,"internalType":"address"},{"name":"newOwner","type":"address","indexed":true,"internalType":"address"}],"anonymous":false},{"type":"event","name":"ProtocolFeesWithdrawn","inputs":[{"name":"to","type":"address","indexed":true,"internalType":"address"},{"name":"amount","type":"uint256","indexed":false,"internalType":"uint256"}],"anonymous":false},{"type":"event","name":"PullRequestApproved","inputs":[{"name":"repoName","type":"string","indexed":false,"internalType":"string"},{"name":"issueId","type":"uint256","indexed":false,"internalType":"uint256"},{"name":"pullRequestId","type":"uint256","indexed":false,"internalType":"uint256"},{"name":"validator","type":"address","indexed":false,"internalType":"address"}],"anonymous":false},{"type":"event","name":"PullRequestCreated","inputs":[{"name":"repoName","type":"string","indexed":false,"internalType":"string"},{"name":"issueId","type":"uint256","indexed":false,"internalType":"uint256"},{"name":"pullRequestId","type":"uint256","indexed":false,"internalType":"uint256"},{"name":"proposer","type":"address","indexed":false,"internalType":"address"}],"anonymous":false},{"type":"event","name":"PullRequestUnapproved","inputs":[{"name":"repoName","type":"string","indexed":false,"internalType":"string"},{"name":"issueId","type":"uint256","indexed":false,"internalType":"uint256"},{"name":"pullRequestId","type":"uint256","indexed":false,"internalType":"uint256"},{"name":"validator","type":"address","indexed":false,"internalType":"address"}],"anonymous":false},{"type":"event","name":"ValidatorAdded","inputs":[{"name":"validator","type":"address","indexed":true,"internalType":"address"},{"name":"stakedAmount","type":"uint256","indexed":false,"internalType":"uint256"}],"anonymous":false},{"type":"event","name":"ValidatorSlashed","inputs":[{"name":"validator","type":"address","indexed":false,"internalType":"address"},{"name":"slashedAmount","type":"uint256","indexed":false,"internalType":"uint256"}],"anonymous":false},{"type":"event","name":"ValidatorStakeUpdated","inputs":[{"name":"validator","type":"address","indexed":true,"internalType":"address"},{"name":"stakedAmount","type":"uint256","indexed":false,"internalType":"uint256"}],"anonymous":false},{"type":"event","name":"ValidatorWithdrawn","inputs":[{"name":"validator","type":"address","indexed":true,"internalType":"address"},{"name":"amount","type":"uint256","indexed":false,"internalType":"uint256"}],"anonymous":false},{"type":"error","name":"OwnableInvalidOwner","inputs":[{"name":"owner","type":"address","internalType":"address"}]},{"type":"error","name":"OwnableUnauthorizedAccount","inputs":[{"name":"account","type":"address","internalType":"address"}]}],"bytecode":{"object":"0x60a06040526032600255600060035534801561001a57600080fd5b50338061004157604051631e4fbdf760e01b81526000600482015260240160405180910390fd5b61004a81610068565b5073036cbd53842c5426634e7929541ec2318f3dcf7e6080526100b8565b600080546001600160a01b038381166001600160a01b0319831681178455604051919092169283917f8be0079c531659141344cd1fd0a4f28419497f9722a3daafe3b4186f6b6457e09190a35050565b608051612651610112600039600081816101a5015281816103dd015281816105db0152818161094101528181610ca8015281816111840152818161161e01528181611af201528181611c100152611f7201526126516000f3fe608060405234801561001057600080fd5b50600436106101375760003560e01c80638da5cb5b116100b8578063ccfc98fd1161007c578063ccfc98fd1461028e578063e4d7d6dc146102a1578063eea5353d146102a9578063f2464a19146102b2578063f2fde38b146102ba578063fa569274146102cd57600080fd5b80638da5cb5b146102465780639f29f13514610257578063af1af3b91461025f578063afd008ce14610268578063cae817461461027b57600080fd5b806342f3aa02116100ff57806342f3aa02146101f2578063610b8c5d146102055780636e9123e314610218578063715018a61461022b57806374c3af9b1461023357600080fd5b80631a7a73c21461013c57806334664846146101515780633983c7581461018d5780633e413bee146101a057806341ecaa57146101df575b600080fd5b61014f61014a3660046120b9565b6102e8565b005b61017a61015f3660046120e3565b6001600160a01b031660009081526006602052604090205490565b6040519081526020015b60405180910390f35b61014f61019b3660046121aa565b6104ba565b6101c77f000000000000000000000000000000000000000000000000000000000000000081565b6040516001600160a01b039091168152602001610184565b61017a6101ed3660046121f8565b6106fd565b61014f6102003660046121aa565b61078c565b61014f61021336600461223d565b6108b9565b61014f61022636600461223d565b610a36565b61014f610d70565b61014f6102413660046121aa565b610d84565b6000546001600160a01b03166101c7565b61017a600581565b61017a60015481565b61014f61027636600461223d565b61102d565b61014f6102893660046121aa565b611271565b61014f61029c3660046121aa565b61151d565b61017a600481565b61017a60025481565b61017a600181565b61014f6102c83660046120e3565b611768565b6101c773036cbd53842c5426634e7929541ec2318f3dcf7e81565b6102f06117a6565b6001548111156103475760405162461bcd60e51b815260206004820152601a60248201527f496e73756666696369656e742070726f746f636f6c206665657300000000000060448201526064015b60405180910390fd5b600081116103675760405162461bcd60e51b815260040161033e90612256565b6001600160a01b0382166103af5760405162461bcd60e51b815260206004820152600f60248201526e496e76616c6964206164647265737360881b604482015260640161033e565b80600160008282546103c191906122a3565b909155505060405163a9059cbb60e01b81526001600160a01b037f0000000000000000000000000000000000000000000000000000000000000000169063a9059cbb9061041490859085906004016122b6565b6020604051808303816000875af1158015610433573d6000803e3d6000fd5b505050506040513d601f19601f8201168201806040525081019061045791906122cf565b6104735760405162461bcd60e51b815260040161033e906122f1565b816001600160a01b03167fa087657e3d85162090ffd700fbfdf5070d816f63aa5da00063f6ffd369c8a6db826040516104ae91815260200190565b60405180910390a25050565b6005836040516104ca9190612343565b9081526040805160209281900383019020600085815292529020600201541561052c5760405162461bcd60e51b8152602060048201526014602482015273497373756520616c72656164792065786973747360601b604482015260640161033e565b60405163095ea7b360e01b815273036cbd53842c5426634e7929541ec2318f3dcf7e9063095ea7b39061056590309085906004016122b6565b6020604051808303816000875af1158015610584573d6000803e3d6000fd5b505050506040513d601f19601f820116820180604052508101906105a891906122cf565b6105c45760405162461bcd60e51b815260040161033e9061235f565b6040516323b872dd60e01b81526001600160a01b037f000000000000000000000000000000000000000000000000000000000000000016906323b872dd9061061490339030908690600401612396565b6020604051808303816000875af1158015610633573d6000803e3d6000fd5b505050506040513d601f19601f8201168201806040525081019061065791906122cf565b6106735760405162461bcd60e51b815260040161033e906122f1565b60006005846040516106859190612343565b90815260408051602092819003830190206000868152925290209050806106ac8582612443565b5060018101839055600281018290556040517fe7d872c262e742aef386b1d1d8edb6faf1f2de7496a4ea44a6cf89db5d0466c1906106ef9086908690869061252e565b60405180910390a150505050565b6000806005846040516107109190612343565b9081526020016040518091039020600084815260200190815260200160002060020154116107505760405162461bcd60e51b815260040161033e90612553565b6005836040516107609190612343565b908152602001604051809103902060008381526020019081526020016000206002015490505b92915050565b600060058460405161079e9190612343565b9081526020016040518091039020600084815260200190815260200160002060020154116107de5760405162461bcd60e51b815260040161033e90612553565b600060035460016107ef9190612581565b905060035460016108009190612581565b6005856040516108109190612343565b9081526040805191829003602090810183206000888152908252828120878252600301825282812094909455848452600490528220805460018201849055600282019390935560ff60a01b19339081166001600160a81b031990941693909317600160a01b178155917ff9d6db5dc6ecaf61d91317d2ea28aa3bcddd38357307e9c2dc268147a3956abc916108aa91889188918891612594565b60405180910390a15050505050565b3360009081526007602052604090205460ff1661090a5760405162461bcd60e51b815260206004820152600f60248201526e2737ba1030903b30b634b230ba37b960891b604482015260640161033e565b6000811161092a5760405162461bcd60e51b815260040161033e90612256565b6040516323b872dd60e01b81526001600160a01b037f000000000000000000000000000000000000000000000000000000000000000016906323b872dd9061097a90339030908690600401612396565b6020604051808303816000875af1158015610999573d6000803e3d6000fd5b505050506040513d601f19601f820116820180604052508101906109bd91906122cf565b6109d95760405162461bcd60e51b815260040161033e906122f1565b33600090815260066020526040812080548392906109f8908490612581565b909155505060405181815233907f10346b0d3a98a58c1f3c66ffbc1cffada168837af0810f19473b1fb2338099d8906020015b60405180910390a250565b3360009081526007602052604090205460ff16610a875760405162461bcd60e51b815260206004820152600f60248201526e2737ba1030903b30b634b230ba37b960891b604482015260640161033e565b33600090815260066020526040902054811115610ae65760405162461bcd60e51b815260206004820152601a60248201527f496e73756666696369656e74207374616b652062616c616e6365000000000000604482015260640161033e565b60008111610b065760405162461bcd60e51b815260040161033e90612256565b60005b600354811015610bce5760008181526004602052604090208054600160a01b900460ff1615610bc55760005b6003820154811015610bc357336001600160a01b0316826003018281548110610b6057610b606125cc565b6000918252602090912001546001600160a01b031603610bbb5760405162461bcd60e51b81526020600482015260166024820152752b30b634b230ba37b91030b1ba34bb329034b710282960511b604482015260640161033e565b600101610b35565b505b50600101610b09565b50336000908152600660205260409020548103610c0157336000908152600760205260409020805460ff19169055610c6d565b60025433600090815260066020526040902054610c1f9083906122a3565b1015610c6d5760405162461bcd60e51b815260206004820152601d60248201527f52656d61696e696e67207374616b652062656c6f77206d696e696d756d000000604482015260640161033e565b3360009081526006602052604081208054839290610c8c9084906122a3565b909155505060405163a9059cbb60e01b81526001600160a01b037f0000000000000000000000000000000000000000000000000000000000000000169063a9059cbb90610cdf90339085906004016122b6565b6020604051808303816000875af1158015610cfe573d6000803e3d6000fd5b505050506040513d601f19601f82011682018060405250810190610d2291906122cf565b610d3e5760405162461bcd60e51b815260040161033e906122f1565b60405181815233907fa011545e03027296d3a8442724d6dc906b26fc29dfb764502d44c9db2762c0de90602001610a2b565b610d786117a6565b610d8260006117d3565b565b600254336000908152600660205260409020541015610de55760405162461bcd60e51b815260206004820152601b60248201527f4f6e6c792076616c696461746f72732063616e20617070726f76650000000000604482015260640161033e565b6000600584604051610df79190612343565b90815260408051602092819003830190206000868152908352818120858252600301835281812054808252600480855283832060018101546002820154338652919092019095529282205490945091929160ff1690805b600086815260046020526040902060030154811015610f04576000868152600460205260409020600301805433919083908110610e8d57610e8d6125cc565b6000918252602090912001546001600160a01b031603610efc57600191508215158203610efc5760405162461bcd60e51b815260206004820152601e60248201527f56616c696461746f722068617320616c726561647920617070726f7665640000604482015260640161033e565b600101610e4e565b50808015610f10575081155b15610f2757610f20600285612581565b9350610f73565b610f32600184612581565b9250610f3f600185612581565b60008681526004602090815260408220600301805460018101825590835291200180546001600160a01b0319163317905593505b6000858152600460208181526040808420338086528185018452828620805460ff19166001908117909155958b90529390925292810187905560020185905590517f7fd1378bb619f703de8bf31361a3eb721682006873fef9ad82551fb89850a0b691610fe6918b918b918b9190612594565b60405180910390a16003841015801561101357506110058360506125e2565b6110108560646125e2565b10155b1561102357611023888888611823565b5050505050505050565b3360009081526007602052604090205460ff16156110835760405162461bcd60e51b815260206004820152601360248201527220b63932b0b23c9030903b30b634b230ba37b960691b604482015260640161033e565b6002548110156110d55760405162461bcd60e51b815260206004820152601a60248201527f5374616b6520616d6f756e742062656c6f77206d696e696d756d000000000000604482015260640161033e565b60405163095ea7b360e01b815273036cbd53842c5426634e7929541ec2318f3dcf7e9063095ea7b39061110e90309085906004016122b6565b6020604051808303816000875af115801561112d573d6000803e3d6000fd5b505050506040513d601f19601f8201168201806040525081019061115191906122cf565b61116d5760405162461bcd60e51b815260040161033e9061235f565b6040516323b872dd60e01b81526001600160a01b037f000000000000000000000000000000000000000000000000000000000000000016906323b872dd906111bd90339030908690600401612396565b6020604051808303816000875af11580156111dc573d6000803e3d6000fd5b505050506040513d601f19601f8201168201806040525081019061120091906122cf565b61121c5760405162461bcd60e51b815260040161033e906122f1565b3360008181526006602090815260408083208590556007825291829020805460ff1916600117905590518381527f9000b209805850a65058f21361a9978cb30f1413ed555553ab52a59b440b5d999101610a2b565b6002543360009081526006602052604090205410156112d25760405162461bcd60e51b815260206004820152601d60248201527f4f6e6c792076616c696461746f72732063616e20756e617070726f7665000000604482015260640161033e565b60006005846040516112e49190612343565b90815260408051602092819003830190206000868152908352818120858252600301835281812054808252600480855283832060018101546002820154338652919092019095529282205490945091929160ff1690805b6000868152600460205260409020600301548110156113f257600086815260046020526040902060030180543391908390811061137a5761137a6125cc565b6000918252602090912001546001600160a01b0316036113ea57600191508215156000036113ea5760405162461bcd60e51b815260206004820181905260248201527f56616c696461746f722068617320616c726561647920756e617070726f766564604482015260640161033e565b60010161133b565b5080801561140257506001821515145b15611419576114126001856122a3565b9350611458565b611424600184612581565b60008681526004602090815260408220600301805460018101825590835291200180546001600160a01b0319163317905592505b6000858152600460208181526040808420338086528185018452828620805460ff19169055948a905292909152600182018790556002909101859055517f8e4f0a9fdbce6ec4a3483f41b7ba0cc0e4e413caba5cb84713032a08b1258866916114c7918b918b918b9190612594565b60405180910390a160006114db85856122a3565b90506003811015801561150257506114f48460506125e2565b6114ff8260646125e2565b10155b1561151257611512898989611cfe565b505050505050505050565b600060058460405161152f9190612343565b90815260200160405180910390206000848152602001908152602001600020600201541161156f5760405162461bcd60e51b815260040161033e90612553565b60405163095ea7b360e01b815273036cbd53842c5426634e7929541ec2318f3dcf7e9063095ea7b3906115a890309085906004016122b6565b6020604051808303816000875af11580156115c7573d6000803e3d6000fd5b505050506040513d601f19601f820116820180604052508101906115eb91906122cf565b6116075760405162461bcd60e51b815260040161033e9061235f565b6040516323b872dd60e01b81526001600160a01b037f000000000000000000000000000000000000000000000000000000000000000016906323b872dd9061165790339030908690600401612396565b6020604051808303816000875af1158015611676573d6000803e3d6000fd5b505050506040513d601f19601f8201168201806040525081019061169a91906122cf565b6116b65760405162461bcd60e51b815260040161033e906122f1565b806005846040516116c79190612343565b9081526020016040518091039020600084815260200190815260200160002060020160008282546116f89190612581565b925050819055507f22114e8f3eb5c40e670ca49344c4384aec0d7768e327c00ba6f908d643a7fa2483836005866040516117329190612343565b90815260408051918290036020908101832060008981529152206002015461175b93929161252e565b60405180910390a1505050565b6117706117a6565b6001600160a01b03811661179a57604051631e4fbdf760e01b81526000600482015260240161033e565b6117a3816117d3565b50565b6000546001600160a01b03163314610d825760405163118cdaa760e01b815233600482015260240161033e565b600080546001600160a01b038381166001600160a01b0319831681178455604051919092169283917f8be0079c531659141344cd1fd0a4f28419497f9722a3daafe3b4186f6b6457e09190a35050565b60006005846040516118359190612343565b9081526040805160209281900383018120600087815293529082209250600590611860908790612343565b9081526040805160209281900383019020600087815290835281812086825260039081018452828220548083526004909452918120909101549192505b818110156119c75760008381526004602052604081206003018054839081106118c8576118c86125cc565b6000918252602080832090910154868352600480835260408085206001600160a01b039093168086529290910190925291205490915060ff166119be576001600160a01b03811660009081526006602052604081205460649061192d906005906125e2565b61193791906125f9565b6001600160a01b0383166000908152600660205260408120805492935083929091906119649084906122a3565b92505081905550806001600082825461197d9190612581565b90915550506040517f17bddadfd7ec8898c3b9eadd0cf5ae77ba8d5df3a50e96ab86ec2dd711aa8fbb906119b490849084906122b6565b60405180910390a1505b5060010161189d565b506002830154600060646119dc6001846125e2565b6119e691906125f9565b9050600060646119f76004856125e2565b611a0191906125f9565b9050600081611a1084866122a3565b611a1a91906122a3565b9050600087600201819055508160016000828254611a389190612581565b909155505060008681526004602052604081206001810154905490916001600160a01b0390911690611a6a83876125f9565b905060005b88811015611bf85760008a815260046020819052604082206003810180549190920192919084908110611aa457611aa46125cc565b60009182526020808320909101546001600160a01b0316835282019290925260400190205460ff161515600103611bf05760008a815260046020526040902060030180546001600160a01b037f0000000000000000000000000000000000000000000000000000000000000000169163a9059cbb9184908110611b2957611b296125cc565b6000918252602090912001546040516001600160e01b031960e084901b168152611b61916001600160a01b03169086906004016122b6565b6020604051808303816000875af1158015611b80573d6000803e3d6000fd5b505050506040513d601f19601f82011682018060405250810190611ba491906122cf565b611bf05760405162461bcd60e51b815260206004820152601d60248201527f56616c696461746f7220666565207472616e73666572206661696c6564000000604482015260640161033e565b600101611a6f565b5060405163a9059cbb60e01b81526001600160a01b037f0000000000000000000000000000000000000000000000000000000000000000169063a9059cbb90611c4790859088906004016122b6565b6020604051808303816000875af1158015611c66573d6000803e3d6000fd5b505050506040513d601f19601f82011682018060405250810190611c8a91906122cf565b611cd65760405162461bcd60e51b815260206004820152601860248201527f50726f706f736572207472616e73666572206661696c65640000000000000000604482015260640161033e565b50505060009586525050600460205250506040909120805460ff60a01b191690555050505050565b6000600584604051611d109190612343565b9081526040805160209281900383018120600087815293529082209250600590611d3b908790612343565b9081526040805160209281900383019020600087815290835281812086825260039081018452828220548083526004909452918120909101549192505b81811015611ea3576000838152600460205260408120600301805483908110611da357611da36125cc565b6000918252602080832090910154868352600480835260408085206001600160a01b039093168086529290910190925291205490915060ff1615611e9a576001600160a01b038116600090815260066020526040812054606490611e09906005906125e2565b611e1391906125f9565b6001600160a01b038316600090815260066020526040812080549293508392909190611e409084906122a3565b925050819055508060016000828254611e599190612581565b90915550506040517f17bddadfd7ec8898c3b9eadd0cf5ae77ba8d5df3a50e96ab86ec2dd711aa8fbb90611e9090849084906122b6565b60405180910390a1505b50600101611d78565b50600283015460006064611eb86001846125e2565b611ec291906125f9565b600085815260046020526040812060010154919250611ee182866122a3565b611eeb90846125f9565b905060005b8581101561207857600087815260046020819052604082206003810180549190920192919084908110611f2557611f256125cc565b60009182526020808320909101546001600160a01b0316835282019290925260400181205460ff161515900361207057600087815260046020526040902060030180546001600160a01b037f0000000000000000000000000000000000000000000000000000000000000000169163a9059cbb9184908110611fa957611fa96125cc565b6000918252602090912001546040516001600160e01b031960e084901b168152611fe1916001600160a01b03169086906004016122b6565b6020604051808303816000875af1158015612000573d6000803e3d6000fd5b505050506040513d601f19601f8201168201806040525081019061202491906122cf565b6120705760405162461bcd60e51b815260206004820152601d60248201527f56616c696461746f7220666565207472616e73666572206661696c6564000000604482015260640161033e565b600101611ef0565b5050506000938452505060046020525060409020805460ff60a01b1916905550505050565b80356001600160a01b03811681146120b457600080fd5b919050565b600080604083850312156120cc57600080fd5b6120d58361209d565b946020939093013593505050565b6000602082840312156120f557600080fd5b6120fe8261209d565b9392505050565b634e487b7160e01b600052604160045260246000fd5b600082601f83011261212c57600080fd5b813567ffffffffffffffff81111561214657612146612105565b604051601f8201601f19908116603f0116810167ffffffffffffffff8111828210171561217557612175612105565b60405281815283820160200185101561218d57600080fd5b816020850160208301376000918101602001919091529392505050565b6000806000606084860312156121bf57600080fd5b833567ffffffffffffffff8111156121d657600080fd5b6121e28682870161211b565b9660208601359650604090950135949350505050565b6000806040838503121561220b57600080fd5b823567ffffffffffffffff81111561222257600080fd5b61222e8582860161211b565b95602094909401359450505050565b60006020828403121561224f57600080fd5b5035919050565b6020808252601d908201527f416d6f756e74206d7573742062652067726561746572207468616e2030000000604082015260600190565b634e487b7160e01b600052601160045260246000fd5b818103818111156107865761078661228d565b6001600160a01b03929092168252602082015260400190565b6000602082840312156122e157600080fd5b815180151581146120fe57600080fd5b6020808252601490820152731554d110c81d1c985b9cd9995c8819985a5b195960621b604082015260600190565b60005b8381101561233a578181015183820152602001612322565b50506000910152565b6000825161235581846020870161231f565b9190910192915050565b6020808252601a908201527f5553444320746f6b656e20617070726f76616c206661696c6564000000000000604082015260600190565b6001600160a01b039384168152919092166020820152604081019190915260600190565b600181811c908216806123ce57607f821691505b6020821081036123ee57634e487b7160e01b600052602260045260246000fd5b50919050565b601f82111561243e57806000526020600020601f840160051c8101602085101561241b5750805b601f840160051c820191505b8181101561243b5760008155600101612427565b50505b505050565b815167ffffffffffffffff81111561245d5761245d612105565b6124718161246b84546123ba565b846123f4565b6020601f8211600181146124a5576000831561248d5750848201515b600019600385901b1c1916600184901b17845561243b565b600084815260208120601f198516915b828110156124d557878501518255602094850194600190920191016124b5565b50848210156124f35786840151600019600387901b60f8161c191681555b50505050600190811b01905550565b6000815180845261251a81602086016020860161231f565b601f01601f19169290920160200192915050565b6060815260006125416060830186612502565b60208301949094525060400152919050565b602080825260149082015273125cdcdd5948191bd95cc81b9bdd08195e1a5cdd60621b604082015260600190565b808201808211156107865761078661228d565b6080815260006125a76080830187612502565b60208301959095525060408101929092526001600160a01b0316606090910152919050565b634e487b7160e01b600052603260045260246000fd5b80820281158282048414176107865761078661228d565b60008261261657634e487b7160e01b600052601260045260246000fd5b50049056fea2646970667358221220e6cbfb53c99402ae7e4dda5f57f96439721ac126509ca37816d7841baa7d20f264736f6c634300081c0033","linkReferences":{}},"methodIdentifiers":{"PROTOCOL_FEE_PERCENTAGE()":"e4d7d6dc","SLASH_PERCENTAGE()":"9f29f135","USDC_TOKEN()":"fa569274","VALIDATOR_FEE_PERCENTAGE()":"f2464a19","addFunds(string,uint256,uint256)":"ccfc98fd","addValidator(uint256)":"afd008ce","addValidatorStake(uint256)":"610b8c5d","approvePullRequest(string,uint256,uint256)":"74c3af9b","createIssue(string,uint256,uint256)":"3983c758","createPullRequest(string,uint256,uint256)":"42f3aa02","getIssueBalance(string,uint256)":"41ecaa57","getValidatorStake(address)":"34664846","owner()":"8da5cb5b","protocolFeeVault()":"af1af3b9","renounceOwnership()":"715018a6","transferOwnership(address)":"f2fde38b","unapprovePullRequest(string,uint256,uint256)":"cae81746","usdc()":"3e413bee","validatorStakeAmount()":"eea5353d","withdrawProtocolFees(address,uint256)":"1a7a73c2","withdrawValidatorStake(uint256)":"6e9123e3"},"id":0}