{
  "abi": [
    {
      "type": "constructor",
      "inputs": [],
      "stateMutability": "nonpayable"
    },
    {
      "type": "function",
      "name": "PROTOCOL_FEE_PERCENTAGE",
      "inputs": [],
      "outputs": [
        {
          "name": "",
          "type": "uint256",
          "internalType": "uint256"
        }
      ],
      "stateMutability": "view"
    },
    {
      "type": "function",
      "name": "SLASH_PERCENTAGE",
      "inputs": [],
      "outputs": [
        {
          "name": "",
          "type": "uint256",
          "internalType": "uint256"
        }
      ],
      "stateMutability": "view"
    },
    {
      "type": "function",
      "name": "USDC_TOKEN",
      "inputs": [],
      "outputs": [
        {
          "name": "",
          "type": "address",
          "internalType": "address"
        }
      ],
      "stateMutability": "view"
    },
    {
      "type": "function",
      "name": "VALIDATOR_FEE_PERCENTAGE",
      "inputs": [],
      "outputs": [
        {
          "name": "",
          "type": "uint256",
          "internalType": "uint256"
        }
      ],
      "stateMutability": "view"
    },
    {
      "type": "function",
      "name": "addFunds",
      "inputs": [
        {
          "name": "repoName",
          "type": "string",
          "internalType": "string"
        },
        {
          "name": "issueId",
          "type": "uint256",
          "internalType": "uint256"
        },
        {
          "name": "amount",
          "type": "uint256",
          "internalType": "uint256"
        }
      ],
      "outputs": [],
      "stateMutability": "nonpayable"
    },
    {
      "type": "function",
      "name": "addValidator",
      "inputs": [
        {
          "name": "stakeAmount",
          "type": "uint256",
          "internalType": "uint256"
        }
      ],
      "outputs": [],
      "stateMutability": "nonpayable"
    },
    {
      "type": "function",
      "name": "approvePullRequest",
      "inputs": [
        {
          "name": "repoName",
          "type": "string",
          "internalType": "string"
        },
        {
          "name": "issueId",
          "type": "uint256",
          "internalType": "uint256"
        },
        {
          "name": "pullRequestId",
          "type": "uint256",
          "internalType": "uint256"
        }
      ],
      "outputs": [],
      "stateMutability": "nonpayable"
    },
    {
      "type": "function",
      "name": "createIssue",
      "inputs": [
        {
          "name": "repoName",
          "type": "string",
          "internalType": "string"
        },
        {
          "name": "issueId",
          "type": "uint256",
          "internalType": "uint256"
        },
        {
          "name": "initialAmount",
          "type": "uint256",
          "internalType": "uint256"
        }
      ],
      "outputs": [],
      "stateMutability": "nonpayable"
    },
    {
      "type": "function",
      "name": "createPullRequest",
      "inputs": [
        {
          "name": "repoName",
          "type": "string",
          "internalType": "string"
        },
        {
          "name": "issueId",
          "type": "uint256",
          "internalType": "uint256"
        },
        {
          "name": "pullRequestId",
          "type": "uint256",
          "internalType": "uint256"
        }
      ],
      "outputs": [],
      "stateMutability": "nonpayable"
    },
    {
      "type": "function",
      "name": "getIssueBalance",
      "inputs": [
        {
          "name": "repoName",
          "type": "string",
          "internalType": "string"
        },
        {
          "name": "issueId",
          "type": "uint256",
          "internalType": "uint256"
        }
      ],
      "outputs": [
        {
          "name": "",
          "type": "uint256",
          "internalType": "uint256"
        }
      ],
      "stateMutability": "view"
    },
    {
      "type": "function",
      "name": "getValidatorStake",
      "inputs": [
        {
          "name": "validator",
          "type": "address",
          "internalType": "address"
        }
      ],
      "outputs": [
        {
          "name": "",
          "type": "uint256",
          "internalType": "uint256"
        }
      ],
      "stateMutability": "view"
    },
    {
      "type": "function",
      "name": "owner",
      "inputs": [],
      "outputs": [
        {
          "name": "",
          "type": "address",
          "internalType": "address"
        }
      ],
      "stateMutability": "view"
    },
    {
      "type": "function",
      "name": "protocolFeeVault",
      "inputs": [],
      "outputs": [
        {
          "name": "",
          "type": "uint256",
          "internalType": "uint256"
        }
      ],
      "stateMutability": "view"
    },
    {
      "type": "function",
      "name": "renounceOwnership",
      "inputs": [],
      "outputs": [],
      "stateMutability": "nonpayable"
    },
    {
      "type": "function",
      "name": "transferOwnership",
      "inputs": [
        {
          "name": "newOwner",
          "type": "address",
          "internalType": "address"
        }
      ],
      "outputs": [],
      "stateMutability": "nonpayable"
    },
    {
      "type": "function",
      "name": "unapprovePullRequest",
      "inputs": [
        {
          "name": "repoName",
          "type": "string",
          "internalType": "string"
        },
        {
          "name": "issueId",
          "type": "uint256",
          "internalType": "uint256"
        },
        {
          "name": "pullRequestId",
          "type": "uint256",
          "internalType": "uint256"
        }
      ],
      "outputs": [],
      "stateMutability": "nonpayable"
    },
    {
      "type": "function",
      "name": "usdc",
      "inputs": [],
      "outputs": [
        {
          "name": "",
          "type": "address",
          "internalType": "contract IERC20"
        }
      ],
      "stateMutability": "view"
    },
    {
      "type": "function",
      "name": "validatorStakeAmount",
      "inputs": [],
      "outputs": [
        {
          "name": "",
          "type": "uint256",
          "internalType": "uint256"
        }
      ],
      "stateMutability": "view"
    },
    {
      "type": "function",
      "name": "withdrawProtocolFees",
      "inputs": [
        {
          "name": "to",
          "type": "address",
          "internalType": "address"
        },
        {
          "name": "amount",
          "type": "uint256",
          "internalType": "uint256"
        }
      ],
      "outputs": [],
      "stateMutability": "nonpayable"
    },
    {
      "type": "function",
      "name": "withdrawValidatorStake",
      "inputs": [
        {
          "name": "amount",
          "type": "uint256",
          "internalType": "uint256"
        }
      ],
      "outputs": [],
      "stateMutability": "nonpayable"
    },
    {
      "type": "event",
      "name": "IssueCreated",
      "inputs": [
        {
          "name": "repoName",
          "type": "string",
          "indexed": false,
          "internalType": "string"
        },
        {
          "name": "issueId",
          "type": "uint256",
          "indexed": false,
          "internalType": "uint256"
        },
        {
          "name": "initialAmount",
          "type": "uint256",
          "indexed": false,
          "internalType": "uint256"
        }
      ],
      "anonymous": false
    },
    {
      "type": "event",
      "name": "IssueUpdated",
      "inputs": [
        {
          "name": "repoName",
          "type": "string",
          "indexed": false,
          "internalType": "string"
        },
        {
          "name": "issueId",
          "type": "uint256",
          "indexed": false,
          "internalType": "uint256"
        },
        {
          "name": "issueBalance",
          "type": "uint256",
          "indexed": false,
          "internalType": "uint256"
        }
      ],
      "anonymous": false
    },
    {
      "type": "event",
      "name": "IssueValidated",
      "inputs": [
        {
          "name": "repoName",
          "type": "string",
          "indexed": false,
          "internalType": "string"
        },
        {
          "name": "issueId",
          "type": "uint256",
          "indexed": false,
          "internalType": "uint256"
        }
      ],
      "anonymous": false
    },
    {
      "type": "event",
      "name": "OwnershipTransferred",
      "inputs": [
        {
          "name": "previousOwner",
          "type": "address",
          "indexed": true,
          "internalType": "address"
        },
        {
          "name": "newOwner",
          "type": "address",
          "indexed": true,
          "internalType": "address"
        }
      ],
      "anonymous": false
    },
    {
      "type": "event",
      "name": "ProtocolFeesWithdrawn",
      "inputs": [
        {
          "name": "to",
          "type": "address",
          "indexed": true,
          "internalType": "address"
        },
        {
          "name": "amount",
          "type": "uint256",
          "indexed": false,
          "internalType": "uint256"
        }
      ],
      "anonymous": false
    },
    {
      "type": "event",
      "name": "PullRequestApproved",
      "inputs": [
        {
          "name": "repoName",
          "type": "string",
          "indexed": false,
          "internalType": "string"
        },
        {
          "name": "issueId",
          "type": "uint256",
          "indexed": false,
          "internalType": "uint256"
        },
        {
          "name": "pullRequestId",
          "type": "uint256",
          "indexed": false,
          "internalType": "uint256"
        },
        {
          "name": "validator",
          "type": "address",
          "indexed": false,
          "internalType": "address"
        }
      ],
      "anonymous": false
    },
    {
      "type": "event",
      "name": "PullRequestCreated",
      "inputs": [
        {
          "name": "repoName",
          "type": "string",
          "indexed": false,
          "internalType": "string"
        },
        {
          "name": "issueId",
          "type": "uint256",
          "indexed": false,
          "internalType": "uint256"
        },
        {
          "name": "pullRequestId",
          "type": "uint256",
          "indexed": false,
          "internalType": "uint256"
        },
        {
          "name": "proposer",
          "type": "address",
          "indexed": false,
          "internalType": "address"
        }
      ],
      "anonymous": false
    },
    {
      "type": "event",
      "name": "PullRequestUnapproved",
      "inputs": [
        {
          "name": "repoName",
          "type": "string",
          "indexed": false,
          "internalType": "string"
        },
        {
          "name": "issueId",
          "type": "uint256",
          "indexed": false,
          "internalType": "uint256"
        },
        {
          "name": "pullRequestId",
          "type": "uint256",
          "indexed": false,
          "internalType": "uint256"
        },
        {
          "name": "validator",
          "type": "address",
          "indexed": false,
          "internalType": "address"
        }
      ],
      "anonymous": false
    },
    {
      "type": "event",
      "name": "ValidatorAdded",
      "inputs": [
        {
          "name": "validator",
          "type": "address",
          "indexed": true,
          "internalType": "address"
        },
        {
          "name": "stakedAmount",
          "type": "uint256",
          "indexed": false,
          "internalType": "uint256"
        }
      ],
      "anonymous": false
    },
    {
      "type": "event",
      "name": "ValidatorSlashed",
      "inputs": [
        {
          "name": "validator",
          "type": "address",
          "indexed": false,
          "internalType": "address"
        },
        {
          "name": "slashedAmount",
          "type": "uint256",
          "indexed": false,
          "internalType": "uint256"
        }
      ],
      "anonymous": false
    },
    {
      "type": "event",
      "name": "ValidatorWithdrawn",
      "inputs": [
        {
          "name": "validator",
          "type": "address",
          "indexed": true,
          "internalType": "address"
        },
        {
          "name": "amount",
          "type": "uint256",
          "indexed": false,
          "internalType": "uint256"
        }
      ],
      "anonymous": false
    },
    {
      "type": "error",
      "name": "OwnableInvalidOwner",
      "inputs": [
        {
          "name": "owner",
          "type": "address",
          "internalType": "address"
        }
      ]
    },
    {
      "type": "error",
      "name": "OwnableUnauthorizedAccount",
      "inputs": [
        {
          "name": "account",
          "type": "address",
          "internalType": "address"
        }
      ]
    }
  ],
  "bytecode": {
    "object": "0x60a0604052603260025534801561001557600080fd5b50338061003c57604051631e4fbdf760e01b81526000600482015260240160405180910390fd5b61004581610063565b5073a0b86991c6218b36c1d19d4a2e9eb0ce3606eb486080526100b3565b600080546001600160a01b038381166001600160a01b0319831681178455604051919092169283917f8be0079c531659141344cd1fd0a4f28419497f9722a3daafe3b4186f6b6457e09190a35050565b6080516121f16101066000396000818161019a015281816103fe0152818161056201528181610ae001528181610ec00152818161125a0152818161172f0152818161185e0152611bbb01526121f16000f3fe608060405234801561001057600080fd5b506004361061012c5760003560e01c80639f29f135116100ad578063e4d7d6dc11610071578063e4d7d6dc14610283578063eea5353d1461028b578063f2464a1914610294578063f2fde38b1461029c578063fa569274146102af57600080fd5b80639f29f13514610239578063af1af3b914610241578063afd008ce1461024a578063cae817461461025d578063ccfc98fd1461027057600080fd5b806342f3aa02116100f457806342f3aa02146101e75780636e9123e3146101fa578063715018a61461020d57806374c3af9b146102155780638da5cb5b1461022857600080fd5b80631a7a73c21461013157806334664846146101465780633983c758146101825780633e413bee1461019557806341ecaa57146101d4575b600080fd5b61014461013f366004611d04565b6102ca565b005b61016f610154366004611d2e565b6001600160a01b031660009081526006602052604090205490565b6040519081526020015b60405180910390f35b610144610190366004611df5565b6104ce565b6101bc7f000000000000000000000000000000000000000000000000000000000000000081565b6040516001600160a01b039091168152602001610179565b61016f6101e2366004611e43565b61067d565b6101446101f5366004611df5565b61070c565b610144610208366004611e88565b610839565b610144610baa565b610144610223366004611df5565b610bbe565b6000546001600160a01b03166101bc565b61016f600581565b61016f60015481565b610144610258366004611e88565b610df6565b61014461026b366004611df5565b610fa6565b61014461027e366004611df5565b6111e6565b61016f600481565b61016f60025481565b61016f600181565b6101446102aa366004611d2e565b61139d565b6101bc73a0b86991c6218b36c1d19d4a2e9eb0ce3606eb4881565b6102d26113db565b6001548111156103295760405162461bcd60e51b815260206004820152601a60248201527f496e73756666696369656e742070726f746f636f6c206665657300000000000060448201526064015b60405180910390fd5b600081116103795760405162461bcd60e51b815260206004820152601d60248201527f416d6f756e74206d7573742062652067726561746572207468616e20300000006044820152606401610320565b6001600160a01b0382166103c15760405162461bcd60e51b815260206004820152600f60248201526e496e76616c6964206164647265737360881b6044820152606401610320565b80600160008282546103d39190611eb7565b909155505060405163a9059cbb60e01b81526001600160a01b038381166004830152602482018390527f0000000000000000000000000000000000000000000000000000000000000000169063a9059cbb906044016020604051808303816000875af1158015610447573d6000803e3d6000fd5b505050506040513d601f19601f8201168201806040525081019061046b9190611eca565b6104875760405162461bcd60e51b815260040161032090611eec565b816001600160a01b03167fa087657e3d85162090ffd700fbfdf5070d816f63aa5da00063f6ffd369c8a6db826040516104c291815260200190565b60405180910390a25050565b6005836040516104de9190611f3e565b908152604080516020928190038301902060008581529252902060020154156105405760405162461bcd60e51b8152602060048201526014602482015273497373756520616c72656164792065786973747360601b6044820152606401610320565b6040516323b872dd60e01b8152336004820152306024820152604481018290527f00000000000000000000000000000000000000000000000000000000000000006001600160a01b0316906323b872dd906064016020604051808303816000875af11580156105b3573d6000803e3d6000fd5b505050506040513d601f19601f820116820180604052508101906105d79190611eca565b6105f35760405162461bcd60e51b815260040161032090611eec565b60006005846040516106059190611f3e565b908152604080516020928190038301902060008681529252902090508061062c8582611fe3565b5060018101839055600281018290556040517fe7d872c262e742aef386b1d1d8edb6faf1f2de7496a4ea44a6cf89db5d0466c19061066f908690869086906120ce565b60405180910390a150505050565b6000806005846040516106909190611f3e565b9081526020016040518091039020600084815260200190815260200160002060020154116106d05760405162461bcd60e51b8152600401610320906120f3565b6005836040516106e09190611f3e565b908152602001604051809103902060008381526020019081526020016000206002015490505b92915050565b600060058460405161071e9190611f3e565b90815260200160405180910390206000848152602001908152602001600020600201541161075e5760405162461bcd60e51b8152600401610320906120f3565b6000600354600161076f9190612121565b905060035460016107809190612121565b6005856040516107909190611f3e565b9081526040805191829003602090810183206000888152908252828120878252600301825282812094909455848452600490528220805460018201849055600282019390935560ff60a01b19339081166001600160a81b031990941693909317600160a01b178155917ff9d6db5dc6ecaf61d91317d2ea28aa3bcddd38357307e9c2dc268147a3956abc9161082a91889188918891612134565b60405180910390a15050505050565b3360009081526007602052604090205460ff1661088a5760405162461bcd60e51b815260206004820152600f60248201526e2737ba1030903b30b634b230ba37b960891b6044820152606401610320565b336000908152600660205260409020548111156108e95760405162461bcd60e51b815260206004820152601a60248201527f496e73756666696369656e74207374616b652062616c616e63650000000000006044820152606401610320565b600081116109395760405162461bcd60e51b815260206004820152601d60248201527f416d6f756e74206d7573742062652067726561746572207468616e20300000006044820152606401610320565b60005b600354811015610a015760008181526004602052604090208054600160a01b900460ff16156109f85760005b60038201548110156109f657336001600160a01b03168260030182815481106109935761099361216c565b6000918252602090912001546001600160a01b0316036109ee5760405162461bcd60e51b81526020600482015260166024820152752b30b634b230ba37b91030b1ba34bb329034b710282960511b6044820152606401610320565b600101610968565b505b5060010161093c565b50336000908152600660205260409020548103610a3457336000908152600760205260409020805460ff19169055610aa0565b60025433600090815260066020526040902054610a52908390611eb7565b1015610aa05760405162461bcd60e51b815260206004820152601d60248201527f52656d61696e696e67207374616b652062656c6f77206d696e696d756d0000006044820152606401610320565b3360009081526006602052604081208054839290610abf908490611eb7565b909155505060405163a9059cbb60e01b8152336004820152602481018290527f00000000000000000000000000000000000000000000000000000000000000006001600160a01b03169063a9059cbb906044016020604051808303816000875af1158015610b31573d6000803e3d6000fd5b505050506040513d601f19601f82011682018060405250810190610b559190611eca565b610b715760405162461bcd60e51b815260040161032090611eec565b60405181815233907fa011545e03027296d3a8442724d6dc906b26fc29dfb764502d44c9db2762c0de906020015b60405180910390a250565b610bb26113db565b610bbc6000611408565b565b600254336000908152600660205260409020541015610c1f5760405162461bcd60e51b815260206004820152601b60248201527f4f6e6c792076616c696461746f72732063616e20617070726f766500000000006044820152606401610320565b6000600584604051610c319190611f3e565b9081526040805160209281900383019020600086815290835281812085825260030183528181205480825260048085528383206001808201546002830154338752929093019096529390922054909450909260ff909116908115159003610cda5760405162461bcd60e51b815260206004820152601a60248201527f56616c696461746f7220616c726561647920617070726f7665640000000000006044820152606401610320565b801515600003610cf657610cef600284612121565b9250610d42565b610d01600183612121565b9150610d0e600184612121565b60008581526004602090815260408220600301805460018101825590835291200180546001600160a01b0319163317905592505b6000848152600460208181526040808420338086528185018452828620805460ff19166001908117909155958a905293909252920185905590517f7fd1378bb619f703de8bf31361a3eb721682006873fef9ad82551fb89850a0b691610dae918a918a918a9190612134565b60405180910390a160038310158015610ddd5750605082610dd0856064612182565b610dda9190612199565b10155b15610ded57610ded878787611458565b50505050505050565b3360009081526007602052604090205460ff1615610e4c5760405162461bcd60e51b815260206004820152601360248201527220b63932b0b23c9030903b30b634b230ba37b960691b6044820152606401610320565b600254811015610e9e5760405162461bcd60e51b815260206004820152601a60248201527f5374616b6520616d6f756e742062656c6f77206d696e696d756d0000000000006044820152606401610320565b6040516323b872dd60e01b8152336004820152306024820152604481018290527f00000000000000000000000000000000000000000000000000000000000000006001600160a01b0316906323b872dd906064016020604051808303816000875af1158015610f11573d6000803e3d6000fd5b505050506040513d601f19601f82011682018060405250810190610f359190611eca565b610f515760405162461bcd60e51b815260040161032090611eec565b3360008181526006602090815260408083208590556007825291829020805460ff1916600117905590518381527f9000b209805850a65058f21361a9978cb30f1413ed555553ab52a59b440b5d999101610b9f565b6002543360009081526006602052604090205410156110075760405162461bcd60e51b815260206004820152601d60248201527f4f6e6c792076616c696461746f72732063616e20756e617070726f76650000006044820152606401610320565b60006005846040516110199190611f3e565b90815260408051602092819003830190206000868152908352818120858252600301835281812054808252600480855283832060018101546002820154338652919092019095529282205490945091929160ff169081151590036110bf5760405162461bcd60e51b815260206004820181905260248201527f56616c696461746f722068617320616c726561647920756e617070726f7665646044820152606401610320565b8015156001036110db576110d4600284611eb7565b9250611127565b6110e6600183612121565b91506110f3600184611eb7565b60008581526004602090815260408220600301805460018101825590835291200180546001600160a01b0319163317905592505b6000848152600460208181526040808420338086528185018452828620805460ff1916905594899052929091526001909101859055517f8e4f0a9fdbce6ec4a3483f41b7ba0cc0e4e413caba5cb84713032a08b12588669161118f918a918a918a9190612134565b60405180910390a160006111a38484611eb7565b9050600381101580156111cc57506050836111bf836064612182565b6111c99190612199565b10155b156111dc576111dc88888861193f565b5050505050505050565b60006005846040516111f89190611f3e565b9081526020016040518091039020600084815260200190815260200160002060020154116112385760405162461bcd60e51b8152600401610320906120f3565b6040516323b872dd60e01b8152336004820152306024820152604481018290527f00000000000000000000000000000000000000000000000000000000000000006001600160a01b0316906323b872dd906064016020604051808303816000875af11580156112ab573d6000803e3d6000fd5b505050506040513d601f19601f820116820180604052508101906112cf9190611eca565b6112eb5760405162461bcd60e51b815260040161032090611eec565b806005846040516112fc9190611f3e565b90815260200160405180910390206000848152602001908152602001600020600201600082825461132d9190612121565b925050819055507f22114e8f3eb5c40e670ca49344c4384aec0d7768e327c00ba6f908d643a7fa2483836005866040516113679190611f3e565b9081526040805191829003602090810183206000898152915220600201546113909392916120ce565b60405180910390a1505050565b6113a56113db565b6001600160a01b0381166113cf57604051631e4fbdf760e01b815260006004820152602401610320565b6113d881611408565b50565b6000546001600160a01b03163314610bbc5760405163118cdaa760e01b8152336004820152602401610320565b600080546001600160a01b038381166001600160a01b0319831681178455604051919092169283917f8be0079c531659141344cd1fd0a4f28419497f9722a3daafe3b4186f6b6457e09190a35050565b600060058460405161146a9190611f3e565b9081526040805160209281900383018120600087815293529082209250600590611495908790611f3e565b9081526040805160209281900383019020600087815290835281812086825260039081018452828220548083526004909452918120909101549192505b818110156116045760008381526004602052604081206003018054839081106114fd576114fd61216c565b6000918252602080832090910154868352600480835260408085206001600160a01b039093168086529290910190925291205490915060ff166115fb576001600160a01b03811660009081526006602052604081205460649061156290600590612182565b61156c9190612199565b6001600160a01b038316600090815260066020526040812080549293508392909190611599908490611eb7565b9250508190555080600160008282546115b29190612121565b9091555050604080516001600160a01b0384168152602081018390527f17bddadfd7ec8898c3b9eadd0cf5ae77ba8d5df3a50e96ab86ec2dd711aa8fbb910160405180910390a1505b506001016114d2565b50600283015460006064611619600184612182565b6116239190612199565b905060006064611634600485612182565b61163e9190612199565b905060008161164d8486611eb7565b6116579190611eb7565b90506000876002018190555081600160008282546116759190612121565b909155505060008681526004602052604081206001810154905490916001600160a01b03909116906116a78387612199565b905060005b888110156118375760008a8152600460208190526040822060038101805491909201929190849081106116e1576116e161216c565b60009182526020808320909101546001600160a01b0316835282019290925260400190205460ff16151560010361182f5760008a815260046020526040902060030180546001600160a01b037f0000000000000000000000000000000000000000000000000000000000000000169163a9059cbb91849081106117665761176661216c565b60009182526020909120015460405160e083901b6001600160e01b03191681526001600160a01b039091166004820152602481018590526044016020604051808303816000875af11580156117bf573d6000803e3d6000fd5b505050506040513d601f19601f820116820180604052508101906117e39190611eca565b61182f5760405162461bcd60e51b815260206004820152601d60248201527f56616c696461746f7220666565207472616e73666572206661696c65640000006044820152606401610320565b6001016116ac565b5060405163a9059cbb60e01b81526001600160a01b038381166004830152602482018690527f0000000000000000000000000000000000000000000000000000000000000000169063a9059cbb906044016020604051808303816000875af11580156118a7573d6000803e3d6000fd5b505050506040513d601f19601f820116820180604052508101906118cb9190611eca565b6119175760405162461bcd60e51b815260206004820152601860248201527f50726f706f736572207472616e73666572206661696c656400000000000000006044820152606401610320565b50505060009586525050600460205250506040909120805460ff60a01b191690555050505050565b60006005846040516119519190611f3e565b908152604080516020928190038301812060008781529352908220925060059061197c908790611f3e565b9081526040805160209281900383019020600087815290835281812086825260039081018452828220548083526004909452918120909101549192505b81811015611aec5760008381526004602052604081206003018054839081106119e4576119e461216c565b6000918252602080832090910154868352600480835260408085206001600160a01b039093168086529290910190925291205490915060ff1615611ae3576001600160a01b038116600090815260066020526040812054606490611a4a90600590612182565b611a549190612199565b6001600160a01b038316600090815260066020526040812080549293508392909190611a81908490611eb7565b925050819055508060016000828254611a9a9190612121565b9091555050604080516001600160a01b0384168152602081018390527f17bddadfd7ec8898c3b9eadd0cf5ae77ba8d5df3a50e96ab86ec2dd711aa8fbb910160405180910390a1505b506001016119b9565b50600283015460006064611b01600184612182565b611b0b9190612199565b600085815260046020526040812060010154919250611b2a8286611eb7565b611b349084612199565b905060005b85811015611cc357600087815260046020819052604082206003810180549190920192919084908110611b6e57611b6e61216c565b60009182526020808320909101546001600160a01b0316835282019290925260400181205460ff1615159003611cbb57600087815260046020526040902060030180546001600160a01b037f0000000000000000000000000000000000000000000000000000000000000000169163a9059cbb9184908110611bf257611bf261216c565b60009182526020909120015460405160e083901b6001600160e01b03191681526001600160a01b039091166004820152602481018590526044016020604051808303816000875af1158015611c4b573d6000803e3d6000fd5b505050506040513d601f19601f82011682018060405250810190611c6f9190611eca565b611cbb5760405162461bcd60e51b815260206004820152601d60248201527f56616c696461746f7220666565207472616e73666572206661696c65640000006044820152606401610320565b600101611b39565b5050506000938452505060046020525060409020805460ff60a01b1916905550505050565b80356001600160a01b0381168114611cff57600080fd5b919050565b60008060408385031215611d1757600080fd5b611d2083611ce8565b946020939093013593505050565b600060208284031215611d4057600080fd5b611d4982611ce8565b9392505050565b634e487b7160e01b600052604160045260246000fd5b600082601f830112611d7757600080fd5b813567ffffffffffffffff811115611d9157611d91611d50565b604051601f8201601f19908116603f0116810167ffffffffffffffff81118282101715611dc057611dc0611d50565b604052818152838201602001851015611dd857600080fd5b816020850160208301376000918101602001919091529392505050565b600080600060608486031215611e0a57600080fd5b833567ffffffffffffffff811115611e2157600080fd5b611e2d86828701611d66565b9660208601359650604090950135949350505050565b60008060408385031215611e5657600080fd5b823567ffffffffffffffff811115611e6d57600080fd5b611e7985828601611d66565b95602094909401359450505050565b600060208284031215611e9a57600080fd5b5035919050565b634e487b7160e01b600052601160045260246000fd5b8181038181111561070657610706611ea1565b600060208284031215611edc57600080fd5b81518015158114611d4957600080fd5b6020808252601490820152731554d110c81d1c985b9cd9995c8819985a5b195960621b604082015260600190565b60005b83811015611f35578181015183820152602001611f1d565b50506000910152565b60008251611f50818460208701611f1a565b9190910192915050565b600181811c90821680611f6e57607f821691505b602082108103611f8e57634e487b7160e01b600052602260045260246000fd5b50919050565b601f821115611fde57806000526020600020601f840160051c81016020851015611fbb5750805b601f840160051c820191505b81811015611fdb5760008155600101611fc7565b50505b505050565b815167ffffffffffffffff811115611ffd57611ffd611d50565b6120118161200b8454611f5a565b84611f94565b6020601f821160018114612045576000831561202d5750848201515b600019600385901b1c1916600184901b178455611fdb565b600084815260208120601f198516915b828110156120755787850151825560209485019460019092019101612055565b50848210156120935786840151600019600387901b60f8161c191681555b50505050600190811b01905550565b600081518084526120ba816020860160208601611f1a565b601f01601f19169290920160200192915050565b6060815260006120e160608301866120a2565b60208301949094525060400152919050565b602080825260149082015273125cdcdd5948191bd95cc81b9bdd08195e1a5cdd60621b604082015260600190565b8082018082111561070657610706611ea1565b60808152600061214760808301876120a2565b60208301959095525060408101929092526001600160a01b0316606090910152919050565b634e487b7160e01b600052603260045260246000fd5b808202811582820484141761070657610706611ea1565b6000826121b657634e487b7160e01b600052601260045260246000fd5b50049056fea2646970667358221220e5a51046a4cf22c2b10db93218c01f65387b117125bf0faf69d1ceace9d8fbad64736f6c634300081c0033",
    "linkReferences": {}
  },
  "methodIdentifiers": {
    "PROTOCOL_FEE_PERCENTAGE()": "e4d7d6dc",
    "SLASH_PERCENTAGE()": "9f29f135",
    "USDC_TOKEN()": "fa569274",
    "VALIDATOR_FEE_PERCENTAGE()": "f2464a19",
    "addFunds(string,uint256,uint256)": "ccfc98fd",
    "addValidator(uint256)": "afd008ce",
    "approvePullRequest(string,uint256,uint256)": "74c3af9b",
    "createIssue(string,uint256,uint256)": "3983c758",
    "createPullRequest(string,uint256,uint256)": "42f3aa02",
    "getIssueBalance(string,uint256)": "41ecaa57",
    "getValidatorStake(address)": "34664846",
    "owner()": "8da5cb5b",
    "protocolFeeVault()": "af1af3b9",
    "renounceOwnership()": "715018a6",
    "transferOwnership(address)": "f2fde38b",
    "unapprovePullRequest(string,uint256,uint256)": "cae81746",
    "usdc()": "3e413bee",
    "validatorStakeAmount()": "eea5353d",
    "withdrawProtocolFees(address,uint256)": "1a7a73c2",
    "withdrawValidatorStake(uint256)": "6e9123e3"
  },
  "id": 0
}